{
  "contractName": "Dex",
  "abi": [
    {
      "inputs": [],
      "stateMutability": "nonpayable",
      "type": "constructor"
    },
    {
      "anonymous": false,
      "inputs": [
        {
          "indexed": false,
          "internalType": "uint256",
          "name": "tradeId",
          "type": "uint256"
        },
        {
          "indexed": false,
          "internalType": "uint256",
          "name": "orderId",
          "type": "uint256"
        },
        {
          "indexed": true,
          "internalType": "bytes32",
          "name": "symbol",
          "type": "bytes32"
        },
        {
          "indexed": true,
          "internalType": "address",
          "name": "trader1",
          "type": "address"
        },
        {
          "indexed": true,
          "internalType": "address",
          "name": "trader2",
          "type": "address"
        },
        {
          "indexed": false,
          "internalType": "uint256",
          "name": "amount",
          "type": "uint256"
        },
        {
          "indexed": false,
          "internalType": "uint256",
          "name": "price",
          "type": "uint256"
        },
        {
          "indexed": false,
          "internalType": "uint256",
          "name": "date",
          "type": "uint256"
        }
      ],
      "name": "newTrade",
      "type": "event"
    },
    {
      "inputs": [],
      "name": "admin",
      "outputs": [
        {
          "internalType": "address",
          "name": "",
          "type": "address"
        }
      ],
      "stateMutability": "view",
      "type": "function",
      "constant": true
    },
    {
      "inputs": [
        {
          "internalType": "bytes32",
          "name": "",
          "type": "bytes32"
        },
        {
          "internalType": "uint256",
          "name": "",
          "type": "uint256"
        },
        {
          "internalType": "uint256",
          "name": "",
          "type": "uint256"
        }
      ],
      "name": "orderBook",
      "outputs": [
        {
          "internalType": "uint256",
          "name": "id",
          "type": "uint256"
        },
        {
          "internalType": "address",
          "name": "trader",
          "type": "address"
        },
        {
          "internalType": "enum Dex.Side",
          "name": "side",
          "type": "uint8"
        },
        {
          "internalType": "bytes32",
          "name": "symbol",
          "type": "bytes32"
        },
        {
          "internalType": "uint256",
          "name": "amount",
          "type": "uint256"
        },
        {
          "internalType": "uint256",
          "name": "filled",
          "type": "uint256"
        },
        {
          "internalType": "uint256",
          "name": "price",
          "type": "uint256"
        },
        {
          "internalType": "uint256",
          "name": "date",
          "type": "uint256"
        }
      ],
      "stateMutability": "view",
      "type": "function",
      "constant": true
    },
    {
      "inputs": [
        {
          "internalType": "uint256",
          "name": "",
          "type": "uint256"
        }
      ],
      "name": "tokenList",
      "outputs": [
        {
          "internalType": "bytes32",
          "name": "",
          "type": "bytes32"
        }
      ],
      "stateMutability": "view",
      "type": "function",
      "constant": true
    },
    {
      "inputs": [
        {
          "internalType": "bytes32",
          "name": "",
          "type": "bytes32"
        }
      ],
      "name": "tokens",
      "outputs": [
        {
          "internalType": "bytes32",
          "name": "symbol",
          "type": "bytes32"
        },
        {
          "internalType": "address",
          "name": "tokenAddress",
          "type": "address"
        }
      ],
      "stateMutability": "view",
      "type": "function",
      "constant": true
    },
    {
      "inputs": [
        {
          "internalType": "address",
          "name": "",
          "type": "address"
        },
        {
          "internalType": "bytes32",
          "name": "",
          "type": "bytes32"
        }
      ],
      "name": "traderBalances",
      "outputs": [
        {
          "internalType": "uint256",
          "name": "",
          "type": "uint256"
        }
      ],
      "stateMutability": "view",
      "type": "function",
      "constant": true
    },
    {
      "inputs": [
        {
          "internalType": "bytes32",
          "name": "ticker",
          "type": "bytes32"
        },
        {
          "internalType": "enum Dex.Side",
          "name": "side",
          "type": "uint8"
        }
      ],
      "name": "getOrders",
      "outputs": [
        {
          "components": [
            {
              "internalType": "uint256",
              "name": "id",
              "type": "uint256"
            },
            {
              "internalType": "address",
              "name": "trader",
              "type": "address"
            },
            {
              "internalType": "enum Dex.Side",
              "name": "side",
              "type": "uint8"
            },
            {
              "internalType": "bytes32",
              "name": "symbol",
              "type": "bytes32"
            },
            {
              "internalType": "uint256",
              "name": "amount",
              "type": "uint256"
            },
            {
              "internalType": "uint256",
              "name": "filled",
              "type": "uint256"
            },
            {
              "internalType": "uint256",
              "name": "price",
              "type": "uint256"
            },
            {
              "internalType": "uint256",
              "name": "date",
              "type": "uint256"
            }
          ],
          "internalType": "struct Dex.Order[]",
          "name": "",
          "type": "tuple[]"
        }
      ],
      "stateMutability": "view",
      "type": "function",
      "constant": true
    },
    {
      "inputs": [],
      "name": "getTokens",
      "outputs": [
        {
          "components": [
            {
              "internalType": "bytes32",
              "name": "symbol",
              "type": "bytes32"
            },
            {
              "internalType": "address",
              "name": "tokenAddress",
              "type": "address"
            }
          ],
          "internalType": "struct Dex.Token[]",
          "name": "",
          "type": "tuple[]"
        }
      ],
      "stateMutability": "view",
      "type": "function",
      "constant": true
    },
    {
      "inputs": [
        {
          "internalType": "bytes32",
          "name": "symbol",
          "type": "bytes32"
        },
        {
          "internalType": "address",
          "name": "tokenAddress",
          "type": "address"
        }
      ],
      "name": "addToken",
      "outputs": [],
      "stateMutability": "nonpayable",
      "type": "function"
    },
    {
      "inputs": [
        {
          "internalType": "uint256",
          "name": "amount",
          "type": "uint256"
        },
        {
          "internalType": "bytes32",
          "name": "symbol",
          "type": "bytes32"
        }
      ],
      "name": "deposit",
      "outputs": [],
      "stateMutability": "nonpayable",
      "type": "function"
    },
    {
      "inputs": [
        {
          "internalType": "uint256",
          "name": "amount",
          "type": "uint256"
        },
        {
          "internalType": "bytes32",
          "name": "symbol",
          "type": "bytes32"
        }
      ],
      "name": "withdraw",
      "outputs": [],
      "stateMutability": "nonpayable",
      "type": "function"
    },
    {
      "inputs": [
        {
          "internalType": "bytes32",
          "name": "symbol",
          "type": "bytes32"
        },
        {
          "internalType": "uint256",
          "name": "amount",
          "type": "uint256"
        },
        {
          "internalType": "uint256",
          "name": "price",
          "type": "uint256"
        },
        {
          "internalType": "enum Dex.Side",
          "name": "side",
          "type": "uint8"
        }
      ],
      "name": "createLimitOrder",
      "outputs": [],
      "stateMutability": "nonpayable",
      "type": "function"
    },
    {
      "inputs": [
        {
          "internalType": "bytes32",
          "name": "symbol",
          "type": "bytes32"
        },
        {
          "internalType": "uint256",
          "name": "amount",
          "type": "uint256"
        },
        {
          "internalType": "enum Dex.Side",
          "name": "side",
          "type": "uint8"
        }
      ],
      "name": "createMarketOrder",
      "outputs": [],
      "stateMutability": "nonpayable",
      "type": "function"
    }
  ],
  "bytecode": "0x608060405234801561001057600080fd5b5033600260006101000a81548173ffffffffffffffffffffffffffffffffffffffff021916908373ffffffffffffffffffffffffffffffffffffffff160217905550613b93806100616000396000f3fe608060405234801561001057600080fd5b50600436106100b45760003560e01c80639ead7222116100715780639ead7222146101b9578063a8d2021a146101e9578063aa6ca80814610205578063c9630cb014610223578063d9c0c9501461023f578063f851a4401461025b576100b4565b80630bb431b6146100b957806346e9658b146100f057806372ce957e146101205780637f2c624614610150578063904194a31461016c5780639776aacf1461019d575b600080fd5b6100d360048036038101906100ce91906130b2565b610279565b6040516100e798979695949392919061375d565b60405180910390f35b61010a60048036038101906101059190613027565b610318565b60405161011791906135fa565b60405180910390f35b61013a60048036038101906101359190612f5d565b6104ee565b6040516101479190613742565b60405180910390f35b61016a60048036038101906101659190613063565b610513565b005b61018660048036038101906101819190612fc2565b611a5e565b604051610194929190613659565b60405180910390f35b6101b760048036038101906101b29190612feb565b611aa2565b005b6101d360048036038101906101ce9190613164565b611bf0565b6040516101e0919061363e565b60405180910390f35b61020360048036038101906101fe919061318d565b611c14565b005b61020d611ec5565b60405161021a919061361c565b60405180910390f35b61023d6004803603810190610238919061318d565b6120b6565b005b61025960048036038101906102549190613101565b6122d6565b005b610263612e9b565b604051610270919061357f565b60405180910390f35b600460205282600052604060002060205281600052604060002081815481106102a157600080fd5b906000526020600020906007020160009250925050508060000154908060010160009054906101000a900473ffffffffffffffffffffffffffffffffffffffff16908060010160149054906101000a900460ff16908060020154908060030154908060040154908060050154908060060154905088565b6060600460008481526020019081526020016000206000836001811115610368577f4e487b7100000000000000000000000000000000000000000000000000000000600052602160045260246000fd5b8152602001908152602001600020805480602002602001604051908101604052809291908181526020016000905b828210156104e2578382906000526020600020906007020160405180610100016040529081600082015481526020016001820160009054906101000a900473ffffffffffffffffffffffffffffffffffffffff1673ffffffffffffffffffffffffffffffffffffffff1673ffffffffffffffffffffffffffffffffffffffff1681526020016001820160149054906101000a900460ff166001811115610465577f4e487b7100000000000000000000000000000000000000000000000000000000600052602160045260246000fd5b600181111561049d577f4e487b7100000000000000000000000000000000000000000000000000000000600052602160045260246000fd5b81526020016002820154815260200160038201548152602001600482015481526020016005820154815260200160068201548152505081526020019060010190610396565b50505050905092915050565b6003602052816000526040600020602052806000526040600020600091509150505481565b82600073ffffffffffffffffffffffffffffffffffffffff1660008083815260200190815260200160002060010160009054906101000a900473ffffffffffffffffffffffffffffffffffffffff1673ffffffffffffffffffffffffffffffffffffffff1614156105b9576040517f08c379a00000000000000000000000000000000000000000000000000000000081526004016105b090613722565b60405180910390fd5b837f444149000000000000000000000000000000000000000000000000000000000081141561061d576040517f08c379a0000000000000000000000000000000000000000000000000000000008152600401610614906136e2565b60405180910390fd5b600180811115610656577f4e487b7100000000000000000000000000000000000000000000000000000000600052602160045260246000fd5b83600181111561068f577f4e487b7100000000000000000000000000000000000000000000000000000000600052602160045260246000fd5b14156107295783600360003373ffffffffffffffffffffffffffffffffffffffff1673ffffffffffffffffffffffffffffffffffffffff1681526020019081526020016000206000878152602001908152602001600020541015610728576040517f08c379a000000000000000000000000000000000000000000000000000000000815260040161071f90613682565b60405180910390fd5b5b6000600460008781526020019081526020016000206000806001811115610779577f4e487b7100000000000000000000000000000000000000000000000000000000600052602160045260246000fd5b8660018111156107b2577f4e487b7100000000000000000000000000000000000000000000000000000000600052602160045260246000fd5b146107be5760006107c1565b60015b60018111156107f9577f4e487b7100000000000000000000000000000000000000000000000000000000600052602160045260246000fd5b815260200190815260200160002090506000808690505b8280549050821080156108235750600081115b15611700576000838381548110610863577f4e487b7100000000000000000000000000000000000000000000000000000000600052603260045260246000fd5b9060005260206000209060070201600401548484815481106108ae577f4e487b7100000000000000000000000000000000000000000000000000000000600052603260045260246000fd5b9060005260206000209060070201600301546108ca9190613961565b905060008183116108db57826108dd565b815b905080836108eb9190613961565b925080858581548110610927577f4e487b7100000000000000000000000000000000000000000000000000000000600052603260045260246000fd5b9060005260206000209060070201600401600082825461094791906138b1565b925050819055503373ffffffffffffffffffffffffffffffffffffffff1685858154811061099e577f4e487b7100000000000000000000000000000000000000000000000000000000600052603260045260246000fd5b906000526020600020906007020160010160009054906101000a900473ffffffffffffffffffffffffffffffffffffffff1673ffffffffffffffffffffffffffffffffffffffff168b7ffc9e03b5c8db1d38fcbbef7db5d52adb19b17e683970fa3b5e4320e0c5e924e2888881548110610a41577f4e487b7100000000000000000000000000000000000000000000000000000000600052603260045260246000fd5b906000526020600020906007020160000154600654868b8b81548110610a90577f4e487b7100000000000000000000000000000000000000000000000000000000600052603260045260246000fd5b90600052602060002090600702016005015442604051610ab49594939291906137db565b60405180910390a4600180811115610af5577f4e487b7100000000000000000000000000000000000000000000000000000000600052602160045260246000fd5b886001811115610b2e577f4e487b7100000000000000000000000000000000000000000000000000000000600052602160045260246000fd5b14156110c75780600360003373ffffffffffffffffffffffffffffffffffffffff1673ffffffffffffffffffffffffffffffffffffffff16815260200190815260200160002060008c815260200190815260200160002054610b909190613961565b600360003373ffffffffffffffffffffffffffffffffffffffff1673ffffffffffffffffffffffffffffffffffffffff16815260200190815260200160002060008c815260200190815260200160002081905550848481548110610c1d577f4e487b7100000000000000000000000000000000000000000000000000000000600052603260045260246000fd5b90600052602060002090600702016005015481610c3a9190613907565b600360003373ffffffffffffffffffffffffffffffffffffffff1673ffffffffffffffffffffffffffffffffffffffff16815260200190815260200160002060007f4441490000000000000000000000000000000000000000000000000000000000815260200190815260200160002054610cb591906138b1565b600360003373ffffffffffffffffffffffffffffffffffffffff1673ffffffffffffffffffffffffffffffffffffffff16815260200190815260200160002060007f44414900000000000000000000000000000000000000000000000000000000008152602001908152602001600020819055508060036000878781548110610d67577f4e487b7100000000000000000000000000000000000000000000000000000000600052603260045260246000fd5b906000526020600020906007020160010160009054906101000a900473ffffffffffffffffffffffffffffffffffffffff1673ffffffffffffffffffffffffffffffffffffffff1673ffffffffffffffffffffffffffffffffffffffff16815260200190815260200160002060008c815260200190815260200160002054610def91906138b1565b60036000878781548110610e2c577f4e487b7100000000000000000000000000000000000000000000000000000000600052603260045260246000fd5b906000526020600020906007020160010160009054906101000a900473ffffffffffffffffffffffffffffffffffffffff1673ffffffffffffffffffffffffffffffffffffffff1673ffffffffffffffffffffffffffffffffffffffff16815260200190815260200160002060008c815260200190815260200160002081905550848481548110610ee6577f4e487b7100000000000000000000000000000000000000000000000000000000600052603260045260246000fd5b90600052602060002090600702016005015481610f039190613907565b60036000878781548110610f40577f4e487b7100000000000000000000000000000000000000000000000000000000600052603260045260246000fd5b906000526020600020906007020160010160009054906101000a900473ffffffffffffffffffffffffffffffffffffffff1673ffffffffffffffffffffffffffffffffffffffff1673ffffffffffffffffffffffffffffffffffffffff16815260200190815260200160002060007f4441490000000000000000000000000000000000000000000000000000000000815260200190815260200160002054610fe89190613961565b60036000878781548110611025577f4e487b7100000000000000000000000000000000000000000000000000000000600052603260045260246000fd5b906000526020600020906007020160010160009054906101000a900473ffffffffffffffffffffffffffffffffffffffff1673ffffffffffffffffffffffffffffffffffffffff1673ffffffffffffffffffffffffffffffffffffffff16815260200190815260200160002060007f44414900000000000000000000000000000000000000000000000000000000008152602001908152602001600020819055505b60006001811115611101577f4e487b7100000000000000000000000000000000000000000000000000000000600052602160045260246000fd5b88600181111561113a577f4e487b7100000000000000000000000000000000000000000000000000000000600052602160045260246000fd5b14156116d35780600360003373ffffffffffffffffffffffffffffffffffffffff1673ffffffffffffffffffffffffffffffffffffffff16815260200190815260200160002060008c81526020019081526020016000205461119c91906138b1565b600360003373ffffffffffffffffffffffffffffffffffffffff1673ffffffffffffffffffffffffffffffffffffffff16815260200190815260200160002060008c815260200190815260200160002081905550848481548110611229577f4e487b7100000000000000000000000000000000000000000000000000000000600052603260045260246000fd5b906000526020600020906007020160050154816112469190613907565b600360003373ffffffffffffffffffffffffffffffffffffffff1673ffffffffffffffffffffffffffffffffffffffff16815260200190815260200160002060007f44414900000000000000000000000000000000000000000000000000000000008152602001908152602001600020546112c19190613961565b600360003373ffffffffffffffffffffffffffffffffffffffff1673ffffffffffffffffffffffffffffffffffffffff16815260200190815260200160002060007f44414900000000000000000000000000000000000000000000000000000000008152602001908152602001600020819055508060036000878781548110611373577f4e487b7100000000000000000000000000000000000000000000000000000000600052603260045260246000fd5b906000526020600020906007020160010160009054906101000a900473ffffffffffffffffffffffffffffffffffffffff1673ffffffffffffffffffffffffffffffffffffffff1673ffffffffffffffffffffffffffffffffffffffff16815260200190815260200160002060008c8152602001908152602001600020546113fb9190613961565b60036000878781548110611438577f4e487b7100000000000000000000000000000000000000000000000000000000600052603260045260246000fd5b906000526020600020906007020160010160009054906101000a900473ffffffffffffffffffffffffffffffffffffffff1673ffffffffffffffffffffffffffffffffffffffff1673ffffffffffffffffffffffffffffffffffffffff16815260200190815260200160002060008c8152602001908152602001600020819055508484815481106114f2577f4e487b7100000000000000000000000000000000000000000000000000000000600052603260045260246000fd5b9060005260206000209060070201600501548161150f9190613907565b6003600087878154811061154c577f4e487b7100000000000000000000000000000000000000000000000000000000600052603260045260246000fd5b906000526020600020906007020160010160009054906101000a900473ffffffffffffffffffffffffffffffffffffffff1673ffffffffffffffffffffffffffffffffffffffff1673ffffffffffffffffffffffffffffffffffffffff16815260200190815260200160002060007f44414900000000000000000000000000000000000000000000000000000000008152602001908152602001600020546115f491906138b1565b60036000878781548110611631577f4e487b7100000000000000000000000000000000000000000000000000000000600052603260045260246000fd5b906000526020600020906007020160010160009054906101000a900473ffffffffffffffffffffffffffffffffffffffff1673ffffffffffffffffffffffffffffffffffffffff1673ffffffffffffffffffffffffffffffffffffffff16815260200190815260200160002060007f44414900000000000000000000000000000000000000000000000000000000008152602001908152602001600020819055505b600660008154809291906116e690613a36565b919050555083806116f690613a36565b9450505050610810565b600091505b8280549050821080156117ab575082828154811061174c577f4e487b7100000000000000000000000000000000000000000000000000000000600052603260045260246000fd5b906000526020600020906007020160030154838381548110611797577f4e487b7100000000000000000000000000000000000000000000000000000000600052603260045260246000fd5b906000526020600020906007020160040154145b15611a54576000600190505b600184805490506117c89190613961565b81101561198557836001826117dd91906138b1565b81548110611814577f4e487b7100000000000000000000000000000000000000000000000000000000600052603260045260246000fd5b906000526020600020906007020184828154811061185b577f4e487b7100000000000000000000000000000000000000000000000000000000600052603260045260246000fd5b9060005260206000209060070201600082015481600001556001820160009054906101000a900473ffffffffffffffffffffffffffffffffffffffff168160010160006101000a81548173ffffffffffffffffffffffffffffffffffffffff021916908373ffffffffffffffffffffffffffffffffffffffff1602179055506001820160149054906101000a900460ff168160010160146101000a81548160ff02191690836001811115611938577f4e487b7100000000000000000000000000000000000000000000000000000000600052602160045260246000fd5b02179055506002820154816002015560038201548160030155600482015481600401556005820154816005015560068201548160060155905050808061197d90613a36565b9150506117b7565b50828054806119bd577f4e487b7100000000000000000000000000000000000000000000000000000000600052603160045260246000fd5b60019003818190600052602060002090600702016000808201600090556001820160006101000a81549073ffffffffffffffffffffffffffffffffffffffff02191690556001820160146101000a81549060ff021916905560028201600090556003820160009055600482016000905560058201600090556006820160009055505090558180611a4c90613a36565b925050611705565b5050505050505050565b60006020528060005260406000206000915090508060000154908060010160009054906101000a900473ffffffffffffffffffffffffffffffffffffffff16905082565b600260009054906101000a900473ffffffffffffffffffffffffffffffffffffffff1673ffffffffffffffffffffffffffffffffffffffff163373ffffffffffffffffffffffffffffffffffffffff1614611b32576040517f08c379a0000000000000000000000000000000000000000000000000000000008152600401611b29906136c2565b60405180910390fd5b60405180604001604052808381526020018273ffffffffffffffffffffffffffffffffffffffff168152506000808481526020019081526020016000206000820151816000015560208201518160010160006101000a81548173ffffffffffffffffffffffffffffffffffffffff021916908373ffffffffffffffffffffffffffffffffffffffff16021790555090505060018290806001815401808255809150506001900390600052602060002001600090919091909150555050565b60018181548110611c0057600080fd5b906000526020600020016000915090505481565b80600073ffffffffffffffffffffffffffffffffffffffff1660008083815260200190815260200160002060010160009054906101000a900473ffffffffffffffffffffffffffffffffffffffff1673ffffffffffffffffffffffffffffffffffffffff161415611cba576040517f08c379a0000000000000000000000000000000000000000000000000000000008152600401611cb190613722565b60405180910390fd5b82600360003373ffffffffffffffffffffffffffffffffffffffff1673ffffffffffffffffffffffffffffffffffffffff1681526020019081526020016000206000848152602001908152602001600020541015611d4d576040517f08c379a0000000000000000000000000000000000000000000000000000000008152600401611d44906136a2565b60405180910390fd5b82600360003373ffffffffffffffffffffffffffffffffffffffff1673ffffffffffffffffffffffffffffffffffffffff168152602001908152602001600020600084815260200190815260200160002054611da99190613961565b600360003373ffffffffffffffffffffffffffffffffffffffff1673ffffffffffffffffffffffffffffffffffffffff16815260200190815260200160002060008481526020019081526020016000208190555060008083815260200190815260200160002060010160009054906101000a900473ffffffffffffffffffffffffffffffffffffffff1673ffffffffffffffffffffffffffffffffffffffff1663a9059cbb33856040518363ffffffff1660e01b8152600401611e6d9291906135d1565b602060405180830381600087803b158015611e8757600080fd5b505af1158015611e9b573d6000803e3d6000fd5b505050506040513d601f19601f82011682018060405250810190611ebf9190612f99565b50505050565b6060600060018054905067ffffffffffffffff811115611f0e577f4e487b7100000000000000000000000000000000000000000000000000000000600052604160045260246000fd5b604051908082528060200260200182016040528015611f4757816020015b611f34612ec1565b815260200190600190039081611f2c5790505b50905060005b6001805490508110156120ae57604051806040016040528060008060018581548110611fa2577f4e487b7100000000000000000000000000000000000000000000000000000000600052603260045260246000fd5b9060005260206000200154815260200190815260200160002060000154815260200160008060018581548110612001577f4e487b7100000000000000000000000000000000000000000000000000000000600052603260045260246000fd5b9060005260206000200154815260200190815260200160002060010160009054906101000a900473ffffffffffffffffffffffffffffffffffffffff1673ffffffffffffffffffffffffffffffffffffffff16815250828281518110612090577f4e487b7100000000000000000000000000000000000000000000000000000000600052603260045260246000fd5b602002602001018190525080806120a690613a36565b915050611f4d565b508091505090565b80600073ffffffffffffffffffffffffffffffffffffffff1660008083815260200190815260200160002060010160009054906101000a900473ffffffffffffffffffffffffffffffffffffffff1673ffffffffffffffffffffffffffffffffffffffff16141561215c576040517f08c379a000000000000000000000000000000000000000000000000000000000815260040161215390613722565b60405180910390fd5b60008083815260200190815260200160002060010160009054906101000a900473ffffffffffffffffffffffffffffffffffffffff1673ffffffffffffffffffffffffffffffffffffffff166323b872dd3330866040518463ffffffff1660e01b81526004016121ce9392919061359a565b602060405180830381600087803b1580156121e857600080fd5b505af11580156121fc573d6000803e3d6000fd5b505050506040513d601f19601f820116820180604052508101906122209190612f99565b5082600360003373ffffffffffffffffffffffffffffffffffffffff1673ffffffffffffffffffffffffffffffffffffffff16815260200190815260200160002060008481526020019081526020016000205461227d91906138b1565b600360003373ffffffffffffffffffffffffffffffffffffffff1673ffffffffffffffffffffffffffffffffffffffff168152602001908152602001600020600084815260200190815260200160002081905550505050565b83600073ffffffffffffffffffffffffffffffffffffffff1660008083815260200190815260200160002060010160009054906101000a900473ffffffffffffffffffffffffffffffffffffffff1673ffffffffffffffffffffffffffffffffffffffff16141561237c576040517f08c379a000000000000000000000000000000000000000000000000000000000815260040161237390613722565b60405180910390fd5b847f44414900000000000000000000000000000000000000000000000000000000008114156123e0576040517f08c379a00000000000000000000000000000000000000000000000000000000081526004016123d7906136e2565b60405180910390fd5b600180811115612419577f4e487b7100000000000000000000000000000000000000000000000000000000600052602160045260246000fd5b836001811115612452577f4e487b7100000000000000000000000000000000000000000000000000000000600052602160045260246000fd5b14156124f05784600360003373ffffffffffffffffffffffffffffffffffffffff1673ffffffffffffffffffffffffffffffffffffffff16815260200190815260200160002060008881526020019081526020016000205410156124eb576040517f08c379a00000000000000000000000000000000000000000000000000000000081526004016124e290613682565b60405180910390fd5b6125af565b83856124fc9190613907565b600360003373ffffffffffffffffffffffffffffffffffffffff1673ffffffffffffffffffffffffffffffffffffffff16815260200190815260200160002060007f444149000000000000000000000000000000000000000000000000000000000081526020019081526020016000205410156125ae576040517f08c379a00000000000000000000000000000000000000000000000000000000081526004016125a590613702565b60405180910390fd5b5b60006004600088815260200190815260200160002060008560018111156125ff577f4e487b7100000000000000000000000000000000000000000000000000000000600052602160045260246000fd5b815260200190815260200160002090508060405180610100016040528060055481526020013373ffffffffffffffffffffffffffffffffffffffff168152602001866001811115612679577f4e487b7100000000000000000000000000000000000000000000000000000000600052602160045260246000fd5b8152602001898152602001888152602001600081526020018781526020014281525090806001815401808255809150506001900390600052602060002090600702016000909190919091506000820151816000015560208201518160010160006101000a81548173ffffffffffffffffffffffffffffffffffffffff021916908373ffffffffffffffffffffffffffffffffffffffff16021790555060408201518160010160146101000a81548160ff02191690836001811115612766577f4e487b7100000000000000000000000000000000000000000000000000000000600052602160045260246000fd5b0217905550606082015181600201556080820151816003015560a0820151816004015560c0820151816005015560e0820151816006015550506000808280549050116127b35760006127c5565b600182805490506127c49190613961565b5b90505b6000811115612e79576000600181111561280b577f4e487b7100000000000000000000000000000000000000000000000000000000600052602160045260246000fd5b856001811115612844577f4e487b7100000000000000000000000000000000000000000000000000000000600052602160045260246000fd5b1480156128f05750818181548110612885577f4e487b7100000000000000000000000000000000000000000000000000000000600052603260045260246000fd5b906000526020600020906007020160050154826001836128a59190613961565b815481106128dc577f4e487b7100000000000000000000000000000000000000000000000000000000600052603260045260246000fd5b906000526020600020906007020160050154115b156128fa57612e79565b600180811115612933577f4e487b7100000000000000000000000000000000000000000000000000000000600052602160045260246000fd5b85600181111561296c577f4e487b7100000000000000000000000000000000000000000000000000000000600052602160045260246000fd5b148015612a1857508181815481106129ad577f4e487b7100000000000000000000000000000000000000000000000000000000600052603260045260246000fd5b906000526020600020906007020160050154826001836129cd9190613961565b81548110612a04577f4e487b7100000000000000000000000000000000000000000000000000000000600052603260045260246000fd5b906000526020600020906007020160050154105b15612a2257612e79565b600082600183612a329190613961565b81548110612a69577f4e487b7100000000000000000000000000000000000000000000000000000000600052603260045260246000fd5b906000526020600020906007020160405180610100016040529081600082015481526020016001820160009054906101000a900473ffffffffffffffffffffffffffffffffffffffff1673ffffffffffffffffffffffffffffffffffffffff1673ffffffffffffffffffffffffffffffffffffffff1681526020016001820160149054906101000a900460ff166001811115612b2e577f4e487b7100000000000000000000000000000000000000000000000000000000600052602160045260246000fd5b6001811115612b66577f4e487b7100000000000000000000000000000000000000000000000000000000600052602160045260246000fd5b8152602001600282015481526020016003820154815260200160048201548152602001600582015481526020016006820154815250509050828281548110612bd7577f4e487b7100000000000000000000000000000000000000000000000000000000600052603260045260246000fd5b906000526020600020906007020183600184612bf39190613961565b81548110612c2a577f4e487b7100000000000000000000000000000000000000000000000000000000600052603260045260246000fd5b9060005260206000209060070201600082015481600001556001820160009054906101000a900473ffffffffffffffffffffffffffffffffffffffff168160010160006101000a81548173ffffffffffffffffffffffffffffffffffffffff021916908373ffffffffffffffffffffffffffffffffffffffff1602179055506001820160149054906101000a900460ff168160010160146101000a81548160ff02191690836001811115612d07577f4e487b7100000000000000000000000000000000000000000000000000000000600052602160045260246000fd5b0217905550600282015481600201556003820154816003015560048201548160040155600582015481600501556006820154816006015590505080838381548110612d7b577f4e487b7100000000000000000000000000000000000000000000000000000000600052603260045260246000fd5b90600052602060002090600702016000820151816000015560208201518160010160006101000a81548173ffffffffffffffffffffffffffffffffffffffff021916908373ffffffffffffffffffffffffffffffffffffffff16021790555060408201518160010160146101000a81548160ff02191690836001811115612e2b577f4e487b7100000000000000000000000000000000000000000000000000000000600052602160045260246000fd5b0217905550606082015181600201556080820151816003015560a0820151816004015560c0820151816005015560e082015181600601559050508180612e7090613a0c565b925050506127c8565b60056000815480929190612e8c90613a36565b91905055505050505050505050565b600260009054906101000a900473ffffffffffffffffffffffffffffffffffffffff1681565b604051806040016040528060008019168152602001600073ffffffffffffffffffffffffffffffffffffffff1681525090565b600081359050612f0381613af1565b92915050565b600081519050612f1881613b08565b92915050565b600081359050612f2d81613b1f565b92915050565b600081359050612f4281613b36565b92915050565b600081359050612f5781613b46565b92915050565b60008060408385031215612f7057600080fd5b6000612f7e85828601612ef4565b9250506020612f8f85828601612f1e565b9150509250929050565b600060208284031215612fab57600080fd5b6000612fb984828501612f09565b91505092915050565b600060208284031215612fd457600080fd5b6000612fe284828501612f1e565b91505092915050565b60008060408385031215612ffe57600080fd5b600061300c85828601612f1e565b925050602061301d85828601612ef4565b9150509250929050565b6000806040838503121561303a57600080fd5b600061304885828601612f1e565b925050602061305985828601612f33565b9150509250929050565b60008060006060848603121561307857600080fd5b600061308686828701612f1e565b935050602061309786828701612f48565b92505060406130a886828701612f33565b9150509250925092565b6000806000606084860312156130c757600080fd5b60006130d586828701612f1e565b93505060206130e686828701612f48565b92505060406130f786828701612f48565b9150509250925092565b6000806000806080858703121561311757600080fd5b600061312587828801612f1e565b945050602061313687828801612f48565b935050604061314787828801612f48565b925050606061315887828801612f33565b91505092959194509250565b60006020828403121561317657600080fd5b600061318484828501612f48565b91505092915050565b600080604083850312156131a057600080fd5b60006131ae85828601612f48565b92505060206131bf85828601612f1e565b9150509250929050565b60006131d58383613490565b6101008301905092915050565b60006131ee8383613532565b60408301905092915050565b61320381613995565b82525050565b61321281613995565b82525050565b60006132238261384e565b61322d818561387e565b93506132388361382e565b8060005b8381101561326957815161325088826131c9565b975061325b83613864565b92505060018101905061323c565b5085935050505092915050565b600061328182613859565b61328b818561388f565b93506132968361383e565b8060005b838110156132c75781516132ae88826131e2565b97506132b983613871565b92505060018101905061329a565b5085935050505092915050565b6132dd816139b3565b82525050565b6132ec816139b3565b82525050565b6132fb816139fa565b82525050565b61330a816139fa565b82525050565b600061331d600f836138a0565b91507f42616c616e636520746f6f206c6f7700000000000000000000000000000000006000830152602082019050919050565b600061335d600f836138a0565b91507f62616c616e636520746f6f206c6f7700000000000000000000000000000000006000830152602082019050919050565b600061339d6012836138a0565b91507f6f6e6c792061646d696e20616c6c6f77656400000000000000000000000000006000830152602082019050919050565b60006133dd6010836138a0565b91507f63616e6e6f7420747261646520446169000000000000000000000000000000006000830152602082019050919050565b600061341d6013836138a0565b91507f4461692042616c616e636520746f6f206c6f77000000000000000000000000006000830152602082019050919050565b600061345d6014836138a0565b91507f746f6b656e20646f6573206e6f742065786973740000000000000000000000006000830152602082019050919050565b610100820160008201516134a76000850182613561565b5060208201516134ba60208501826131fa565b5060408201516134cd60408501826132f2565b5060608201516134e060608501826132d4565b5060808201516134f36080850182613561565b5060a082015161350660a0850182613561565b5060c082015161351960c0850182613561565b5060e082015161352c60e0850182613561565b50505050565b60408201600082015161354860008501826132d4565b50602082015161355b60208501826131fa565b50505050565b61356a816139f0565b82525050565b613579816139f0565b82525050565b60006020820190506135946000830184613209565b92915050565b60006060820190506135af6000830186613209565b6135bc6020830185613209565b6135c96040830184613570565b949350505050565b60006040820190506135e66000830185613209565b6135f36020830184613570565b9392505050565b600060208201905081810360008301526136148184613218565b905092915050565b600060208201905081810360008301526136368184613276565b905092915050565b600060208201905061365360008301846132e3565b92915050565b600060408201905061366e60008301856132e3565b61367b6020830184613209565b9392505050565b6000602082019050818103600083015261369b81613310565b9050919050565b600060208201905081810360008301526136bb81613350565b9050919050565b600060208201905081810360008301526136db81613390565b9050919050565b600060208201905081810360008301526136fb816133d0565b9050919050565b6000602082019050818103600083015261371b81613410565b9050919050565b6000602082019050818103600083015261373b81613450565b9050919050565b60006020820190506137576000830184613570565b92915050565b600061010082019050613773600083018b613570565b613780602083018a613209565b61378d6040830189613301565b61379a60608301886132e3565b6137a76080830187613570565b6137b460a0830186613570565b6137c160c0830185613570565b6137ce60e0830184613570565b9998505050505050505050565b600060a0820190506137f06000830188613570565b6137fd6020830187613570565b61380a6040830186613570565b6138176060830185613570565b6138246080830184613570565b9695505050505050565b6000819050602082019050919050565b6000819050602082019050919050565b600081519050919050565b600081519050919050565b6000602082019050919050565b6000602082019050919050565b600082825260208201905092915050565b600082825260208201905092915050565b600082825260208201905092915050565b60006138bc826139f0565b91506138c7836139f0565b9250827fffffffffffffffffffffffffffffffffffffffffffffffffffffffffffffffff038211156138fc576138fb613a7f565b5b828201905092915050565b6000613912826139f0565b915061391d836139f0565b9250817fffffffffffffffffffffffffffffffffffffffffffffffffffffffffffffffff048311821515161561395657613955613a7f565b5b828202905092915050565b600061396c826139f0565b9150613977836139f0565b92508282101561398a57613989613a7f565b5b828203905092915050565b60006139a0826139d0565b9050919050565b60008115159050919050565b6000819050919050565b60008190506139cb82613add565b919050565b600073ffffffffffffffffffffffffffffffffffffffff82169050919050565b6000819050919050565b6000613a05826139bd565b9050919050565b6000613a17826139f0565b91506000821415613a2b57613a2a613a7f565b5b600182039050919050565b6000613a41826139f0565b91507fffffffffffffffffffffffffffffffffffffffffffffffffffffffffffffffff821415613a7457613a73613a7f565b5b600182019050919050565b7f4e487b7100000000000000000000000000000000000000000000000000000000600052601160045260246000fd5b7f4e487b7100000000000000000000000000000000000000000000000000000000600052602160045260246000fd5b60028110613aee57613aed613aae565b5b50565b613afa81613995565b8114613b0557600080fd5b50565b613b11816139a7565b8114613b1c57600080fd5b50565b613b28816139b3565b8114613b3357600080fd5b50565b60028110613b4357600080fd5b50565b613b4f816139f0565b8114613b5a57600080fd5b5056fea2646970667358221220ffeeb609a57d7f32d904cd2976e166bf3f6a4bb58df265293b90ec426372ce1d64736f6c63430008000033",
  "immutableReferences": {},
  "source": "// SPDX-License-Identifier: MIT\npragma solidity ^0.8.0;\n\nimport '@openzeppelin/contracts/token/ERC20/IERC20.sol';\n\ncontract Dex {\n\n\n    //dev implement limit orders \n\n    enum Side {\n        BUY,\n        SELL\n    }\n\n    struct Token {\n        bytes32 symbol;\n        address tokenAddress;\n    }\n    \n    struct Order {\n        uint id;\n        address trader;\n        Side side;\n        bytes32 symbol;\n        uint amount;\n        uint filled;\n        uint price;\n        uint date;\n    }\n    //dev track new tokens added\n    mapping(bytes32 => Token) public tokens;\n\n    //dev update the token list\n    bytes32[] public tokenList;\n\n    address public admin;\n\n    //before trader can trade , they should sent eth to this smart contract\n    //we will create two function 1 send eth 2 withdraw eth\n    //we also keep track of how many tokens were sent by who\n\n    mapping(address => mapping(bytes32 => uint)) public traderBalances;\n\n    //dev implement a mapping for orderbook\n\n    mapping(bytes32 => mapping(uint => Order[])) public orderBook;\n\n    //dev track the current order id\n\n    uint nextOrderId;\n    uint nextTradeId;\n    bytes32 constant DAI = bytes32('DAI');\n\n    event newTrade(uint tradeId,\n    uint  orderId,\n    bytes32 indexed symbol,\n    address indexed trader1, \n    address indexed trader2,\n    uint amount, uint price,\n    uint date);\n\n    constructor() {\n        admin = msg.sender;\n    }\n\n    function getOrders(\n    bytes32 ticker, \n    Side side) \n    external \n    view\n    returns(Order[] memory) {\n    return orderBook[ticker][uint(side)];\n    }\n    function getTokens() \n      external \n      view \n      returns(Token[] memory) {\n      Token[] memory _tokens = new Token[](tokenList.length);\n      for (uint i = 0; i < tokenList.length; i++) {\n        _tokens[i] = Token(\n           tokens[tokenList[i]].symbol,\n          tokens[tokenList[i]].tokenAddress\n        );\n      }\n      return _tokens;\n    }\n\n    //dev create a function to add a token\n    //and restrict it to only admin\n\n    function addToken(\n        bytes32 symbol,\n        address tokenAddress\n    ) external onlyAdmin() {\n        tokens[symbol] = Token(symbol, tokenAddress);\n        tokenList.push(symbol);\n    }\n\n    //dev create deposit function to deposit eth\n    function deposit(uint amount, bytes32 symbol) external tokenExist(symbol) {\n        //dev use openzeppelin contracts to implement an interface to allow deposits\n        //dev use delegated transfer\n          IERC20(tokens[symbol].tokenAddress).transferFrom(\n              msg.sender, address(this), amount\n          );\n\n          //dev add amount to the trader balance\n          traderBalances[msg.sender][symbol] =  traderBalances[msg.sender][symbol] +amount ;\n    }\n    //dev create a withdraw function\n    //allows trader to withdraw his tokens\n\n    function withdraw(uint amount, bytes32 symbol ) external tokenExist(symbol)  {\n        //dev check that trader have more or equal amount of token\n        //he is withdrawing\n        require(traderBalances[msg.sender][symbol] >= amount, 'balance too low');\n        //dev decrease trader balance\n          traderBalances[msg.sender][symbol] = traderBalances[msg.sender][symbol] - amount;\n        //dev transfer tokens to trader\n        IERC20(tokens[symbol].tokenAddress).transfer(\n            msg.sender, amount);\n\n    } \n\n    function createLimitOrder(bytes32 symbol,\n    uint amount, uint price, Side side\n    ) external tokenExist(symbol) tokenIsNotDai(symbol) {\n       //trader must have enough token in their balance\n       if(side == Side.SELL) {\n           require(traderBalances[msg.sender][symbol] >= amount, 'Balance too low');\n       }else {\n           require(traderBalances[msg.sender][DAI] >= amount*price, 'Dai Balance too low');\n       }\n       Order[] storage orders = orderBook[symbol][uint(side)];\n       orders.push(Order( \n           nextOrderId,\n           msg.sender,\n           side,\n           symbol,\n           amount,\n           0,\n           price,\n           block.timestamp\n       ));\n\n       //dev uses bubble sort algo to set the best price at the top of the orderbook\n\n       uint i = orders.length > 0 ?  orders.length - 1 : 0;\n       while(i > 0) {\n           if(side == Side.BUY && orders[i - 1].price > orders[i].price) {\n             break;\n           }\n           if(side == Side.SELL && orders[i - 1].price < orders[i].price) {\n             break;\n           }\n           Order memory order = orders[i - 1];\n           orders[i - 1] = orders[i];\n           orders[i] = order;\n           i--;\n       }\n       nextOrderId++;\n    }\n      \n      //marketorder function to buy or sell tokens instantly\n\n    function createMarketOrder(bytes32 symbol, uint amount, Side side) external tokenExist(symbol) tokenIsNotDai(symbol) {\n             if(side == Side.SELL) {\n           require(traderBalances[msg.sender][symbol] >= amount, 'Balance too low');\n       }\n       //dev point orders to the other side of orders in the orderbook\n       Order[] storage orders = orderBook[symbol][uint(side == Side.BUY ? Side.SELL : Side.BUY)];\n       uint i;\n       uint remaining = amount;\n       while(i < orders.length && remaining > 0){\n           uint available = orders[i].amount - orders[i].filled;\n           uint matched = (remaining > available) ? available : remaining;\n           remaining = remaining - matched;\n           orders[i].filled += matched;\n           emit newTrade(\n              orders[i].id,\n              nextTradeId,\n              symbol,\n              orders[i].trader,\n              msg.sender,\n              matched,\n              orders[i].price,\n              block.timestamp\n\n              \n           );\n           if(side == Side.SELL) {\n                traderBalances[msg.sender][symbol] = traderBalances[msg.sender][symbol] - matched;\n                traderBalances[msg.sender][DAI] = traderBalances[msg.sender][DAI] + (matched * orders[i].price);\n                traderBalances[orders[i].trader][symbol] = traderBalances[orders[i].trader][symbol] + matched;\n                traderBalances[orders[i].trader][DAI] = traderBalances[orders[i].trader][DAI] - (matched * orders[i].price);\n           }\n            if(side == Side.BUY) {\n                traderBalances[msg.sender][symbol] = traderBalances[msg.sender][symbol] + matched;\n                traderBalances[msg.sender][DAI] = traderBalances[msg.sender][DAI] - (matched * orders[i].price);\n                traderBalances[orders[i].trader][symbol] = traderBalances[orders[i].trader][symbol] - matched;\n                traderBalances[orders[i].trader][DAI] = traderBalances[orders[i].trader][DAI] + (matched * orders[i].price);\n           }\n           nextTradeId++;\n           i++;\n       }\n       //dev remove orders that were completely filled from the orderbook\n       i = 0;\n       while(i < orders.length && orders[i].filled == orders[i].amount){\n           for(uint j= 1; j< orders.length -1; j++){\n               orders[j] = orders[j+1];\n           }\n           orders.pop();\n           i++;\n       }\n\n    }\n\n    modifier tokenIsNotDai(bytes32 symbol) {\n        require(symbol != DAI, 'cannot trade Dai');\n        _;\n    }\n    //dev create modifier so only admin can add tokens\n\n    modifier onlyAdmin() {\n        require(msg.sender == admin, 'only admin allowed');\n        _;\n    }\n\n    //dev prevent anyone from adding/withdrawing token that\n    //does not exit\n\n    modifier tokenExist(bytes32 symbol) {\n         require(tokens[symbol].tokenAddress != address(0), 'token does not exist');\n         _;\n    }\n}",
  "sourcePath": "/mnt/c/Users/abeic/dex/contracts/Dex.sol",
  "compiler": {
    "name": "solc",
    "version": "0.8.0+commit.c7dfd78e.Emscripten.clang"
  },
  "schemaVersion": "3.4.5",
  "updatedAt": "2022-02-21T00:12:40.320Z",
  "networkType": "ethereum",
  "devdoc": {
    "kind": "dev",
    "methods": {},
    "version": 1
  },
  "userdoc": {
    "kind": "user",
    "methods": {},
    "version": 1
  }
}